:020000040800F2
:10000000D0070120453A00088532000887320008F1
:10001000893200088B3200088D3200080000000091
:100020000000000000000000000000008F32000807
:100030009132000800000000933200089532000859
:100040005F3A00085F3A00085F3A00085F3A00082C
:100050005F3A00085F3A00085F3A00085F3A00081C
:10006000313900085F3A0008E33800085F3A0008B9
:100070005F3A00085F3A00085F3A00085F3A0008FC
:100080005F3A00085F3A00085F3A00085F3A0008EC
:100090005F3A00085F3A00085F3A000895380008A8
:1000A0005F3A00085F3A00085F3A00085F3A0008CC
:1000B0005F3A0008313300085F3A00085F3A0008F1
:1000C0005F3A00085F3A00085F3A00085F3A0008AC
:1000D0005F3A0008B95900085F3A00085F3A000823
:1000E0005F3A00085F3A00085F3A00085F3A00088C
:1000F0005F3A00085F3A00085F3A00085F3A00087C
:100100005F3A00085F3A00085D3400085F3A000873
:100110005F3A00085F3A00085F3A00085F3A00085B
:100120005F3A00085F3A00085F3A00085F3A00084B
:100130005F3A00085F3A00085F3A00085F3A00083B
:100140005F3A00085F3A00085F3A00085F3A00082B
:100150005F3A00085F3A00085F3A00085F3A00081B
:100160005F3A00085F3A00085F3A00085F3A00080B
:100170005F3A00085F3A00085F3A00085F3A0008FB
:100180005F3A00085F3A000800F002F800F04CF80F
:100190000AA090E8000C82448344AAF10107DA45E2
:1001A00001D100F041F8AFF2090EBAE80F0013F0E8
:1001B000010F18BFFB1A43F0010318477017010025
:1001C00090170100103A24BF78C878C1FAD85207B6
:1001D00024BF30C830C144BF04680C6070470000C1
:1001E0000023002400250026103A28BF78C1FBD840
:1001F000520728BF30C148BF0B607047662908F01E
:100200003A81782906F06481002070471FB508F014
:10021000C6F806F031FD04000020002107F0CAFAFC
:10022000E0601FBD10B510BD06F02AFE1146FFF7B5
:10023000EDFF00F00FF806F048FE03B4FFF7F2FF01
:1002400003BC05F05FFB000001B50098411E009162
:10025000FBD208BD2DED108B88B04FF4A06003F0E9
:1002600011FC03F0FFFA03F08AFBA82005F0EEFA78
:1002700003F012F801F0D3FA4FF6FF74204602F0B3
:1002800001FE0A210023FEA20846009402F033FF7B
:100290000023FEA21E210A20009402F02CFF00235E
:1002A000FEA232210A20009402F025FF0023FEA2C4
:1002B00046210A20009402F01EFF0023FDA25A21CD
:1002C0000A20009402F017FF0023FDA26E210A20ED
:1002D000009402F010FF0023FCA282210A20009467
:1002E00002F009FF0023FCA296210A20009402F0EC
:1002F00002FF0023FBA2AA210A20009402F0FBFEC9
:100300000023FBA2BE210A20009402F0F4FE002389
:10031000FAA2D2210A20009402F0EDFE0023FAA2F4
:10032000E6210A20009402F0E6FE01231C030022CD
:10033000214602A805F03CFF03F0B4F9F54D214633
:10034000284603F0FCFEF44805F0EDF8FF2003F02A
:1003500056FAFF2003F053FAFF2003F050FAFF2073
:1003600003F04DFAFF2003F04AFAFF2003F047FAAA
:10037000FF2003F044FAFF2003F041FA4FF4FA7033
:1003800005F077FA2146284603F0D7FE03F0A9F9D5
:1003900003F0A7F903F0A5F903F0A3F903F0A1F91D
:1003A0002146284603F0CBFE202003F028FA102037
:1003B00003F025FA002003F022FA322005F059FA62
:1003C0002146284603F0B9FE2146284603F0B7FE31
:1003D000102003F014FA002003F011FA002003F0BB
:1003E0000EFA322005F045FA122003F008FA8020B8
:1003F00003F005FA432003F002FA322005F039FA3F
:100400002146284603F099FE9FEDC4DB9FEDC5CB46
:10041000DFEDC6EAC64D686801287DD10703BD4CF3
:100420003946204603F08BFE102003F0E8F9002047
:1004300003F0E5F9002003F0E2F9322005F019FAA3
:10044000122003F0DCF9802003F0D9F9432003F0F7
:10045000D6F9322005F00DFA3946204603F06DFE3C
:100460000021481E02F0A7FF4FF47A7005F02FFA22
:100470000021B04804F058FBAF4CB0A1B04894ED57
:10048000000B53EC102B05F0E7FF94ED000B53EC41
:100490001D2B51EC100B07F07DFA07F0D3FBA86081
:1004A0004FF6FF740023A64A1E217820009402F024
:1004B00022FE0023A3A21E21C820009402F01BFEEE
:1004C0004FF492710D2002F007FF4FF4FA6005F02F
:1004D000FEF900219C4804F027FBDFF8709200260B
:1004E0009FED9B8AA9F5404859F8260007F01EFCAD
:1004F000B0EE4C1AF0EE6C1A53EC112B07F04AFADE
:1005000007F06EF900EE100A08EBC600414630EE27
:10051000480A80ED000A00E0FDE3761CB6B2C0EDAB
:1005200001EABE42E0D3C5ED03EA0020DFED890A0F
:1005300001EBC00295ED030A92ED001A401C80B257
:1005400001EE200AB84285ED030AF1D3002001EB49
:10055000C002401CD2ED000A80B2B84270EEC00A60
:10056000C2ED000AF3D37C4902A805F003FE3A4627
:100570007A49794805F054FA9FED799B774E4FF010
:100580000008B0EE498AF0EE698A9FED77EA06EB43
:10059000880090ED000A20EE0E0A20EE000A10EE10
:1005A000100A07F08BFE41EC1A0B53EC182B51ECA0
:1005B000180B07F0CFFB53EC1A2B07F043F941EC73
:1005C000100B07F0B3F808F101081FFA88F8B0EE35
:1005D000408AF0EE608AB845D9D3686807F08FFB8F
:1005E00041EC100B51EC180B53EC102B07F0D2F927
:1005F0009FED5E1B53EC112B07F0ACFB9FED5D1BD9
:1006000053EC112B07F070FD07F04CFB87B2A146AD
:1006100000235AA232219620009402F06CFD4FF480
:10062000784BCDE900B4D84605233A463221642000
:1006300002F084FD002352A23221DC20009402F05B
:100640005AFD0A20B7FBF0F2CDE9008404233221E1
:10065000B92002F073FDB0EE498AF0EE698A0024F9
:10066000A868204406EB800010ED050A20EE0E0A73
:1006700020EE000A10EE100A07F020FE82E00000D3
:10068000414443373137365F49443A004861726D1F
:100690006F6E7920667265713A000000416D706C72
:1006A0006974756465000000537065637472756DDC
:1006B00020310000537065637472756D2032000044
:1006C000537065637472756D2033000053706563F9
:1006D0007472756D20340000537065637472756DAB
:1006E00020350000537065637472756D203600000C
:1006F000537065637472756D2037000053706563C5
:100700007472756D20380000537065637472756D76
:1007100020390000000402400038004000000000C2
:10072000000014402D431CEBE2369A40000000000C
:1007300000000020000C004048000020256600005A
:100740007C000120487A0000000400407CC00020AA
:1007500000409C45000080397C0000207C80002007
:1007600000000000000000000000003AB4C876BE9F
:100770009F5A2440D7A3703D0A7180406D560000F7
:100780006D41000041EC1A0B53EC182B51EC180B87
:1007900007F0E0FA53EC1A2B07F054F841EC100B79
:1007A00006F0C4FF641CA4B2B0EE408AF0EE608A8A
:1007B0000B2CFFF455AFA968B04606EB810090ED15
:1007C000000A20EE0E0A10EE100A07F077FD41EC49
:1007D000180BFE48406807F092FA41EC100B51EC00
:1007E000180B53EC102B07F0D5F89FEDF9BB53EC29
:1007F0001B2B07F0AFFA9FEDF8AB53EC1A2B07F069
:1008000021F807F04FFA87B2CA464C460023AFF2F0
:10081000940246219620CDF8009002F06CFCCDE9C0
:1008200000B45E4605233A464621642002F086FC69
:100830000023AFF2B4024621DC20009402F05BFCFE
:100840004FF00A0BD946B7FBF9F2CDE90064042357
:100850004621B92002F072FCDC49896808EBC1002E
:1008600090ED000A20EE0E0A10EE100A07F026FDA9
:1008700041EC180BD548406807F041FA41EC100BE9
:1008800051EC180B53EC102B07F084F853EC1B2B96
:1008900007F060FA53EC1A2B06F0D4FF07F002FAC7
:1008A00087B20023AFF22C125A219620009402F056
:1008B00022FCCDE9006405233A465A21642002F067
:1008C0003DFC0023AFF248125A21DC20009402F0D4
:1008D00012FCB7FBF9F2CDE9006404235A21B920D8
:1008E00002F02CFCB0EE498AF0EE698A00244746FB
:1008F000A86800EB4000204407EB800010ED050ADB
:1009000020EE0E0A20EE000A10EE100A07F0D6FCC8
:1009100041EC1F0B53EC182B51EC180B07F01AFA93
:1009200053EC1F2B06F08EFF41EC100B06F0FEFE81
:10093000641CA4B2B0EE408AF0EE608A0B2CD7D3D0
:10094000686807F0DCF941EC100B51EC180B53EC24
:10095000102B07F01FF853EC1B2B07F0FBF953EC9F
:100960001A2B06F06FFF07F09DF91FFA80F8D146A9
:1009700054460023AFF2FC126E219620CDF800A061
:1009800002F0B9FBCDE90064052342466E216420E4
:1009900002F0D4FB0023AFF218226E21DC20009479
:1009A00002F0A9FBDA46B8FBFAF2CDE900640423B1
:1009B0006E21B92002F0C2FBA968B84607EB01100E
:1009C00090ED000A20EE0E0A10EE100A07F076FCF9
:1009D00041EC180B686807F092F941EC100B51ECF0
:1009E000180B53EC102B06F0D5FF53EC1B2B07F024
:1009F000B1F953EC1A2B06F025FF07F053F987B233
:100A00000023AFF2882282219620009402F073FB2B
:100A1000CDE9006405233A468221642002F08EFB72
:100A20000023AFF2A4228221DC20009402F063FBB9
:100A3000B7FBFAF2CDE9006404238221B92002F069
:100A40007DFBB0EE498AF0EE698A00244746A8682B
:100A500000EB8000204407EB800010ED050A20EE3B
:100A60000E0A20EE000A10EE100A07F027FC41ECF7
:100A70001F0B53EC182B51EC180B07F06BF953ECD0
:100A80001F2B06F0DFFE41EC100B06F04FFE641C3E
:100A9000A4B2B0EE408AF0EE608A0B2CD7D368681F
:100AA00007F02DF941EC100B51EC180B53EC102B07
:100AB00006F070FF53EC1B2B07F04CF953EC1A2B8C
:100AC00006F0C0FE07F0EEF81FFA80F84C4600234F
:100AD000AFF2583296210846CDF8009002F00BFB99
:100AE000CDE90064B146052342469621642002F018
:100AF00025FB0023AFF278329621DC20009402F02F
:100B0000FAFA4046D046B0FBF8F2CDE90064D3468D
:100B100004239621B92002F011FBA868BA4600EB25
:100B2000400107EBC10090ED000A20EE0E0A10EE26
:100B3000100A07F0C3FB41EC180B686807F0DFF8F8
:100B400041EC100B51EC180B53EC102B06F022FF6C
:100B500053EC1B2B07F0FEF853EC1A2B06F072FE39
:100B600007F0A0F887B20023AFF2F032AA21962056
:100B7000009402F0C0FACDE9006405233A46AA21A8
:100B8000642002F0DBFA0023AFF20C42AA21DC2041
:100B9000009402F0B0FAB7FBF8F2CDE90064042348
:100BA000AA21B92002F0CAFAB0EE498AF0EE698AA9
:100BB00000275646A868C0EBC000384406EB80000A
:100BC00010ED050A20EE0E0A0AE0000000000020E9
:100BD000BC74931804962B409A999999995943405B
:100BE00020EE000A10EE100A07F068FB41EC1F0B24
:100BF00053EC182B51EC180B07F0ACF853EC1F2BEF
:100C000006F020FE41EC100B06F090FD7F1CBFB2F9
:100C1000B0EE408AF0EE608A0B2FCBD3686807F005
:100C20006EF841EC100B51EC180B53EC102B06F046
:100C3000B1FE53EC1B2B07F08DF853EC1A2B06F08A
:100C400001FE07F02FF81FFA80F8A2460023AFF24A
:100C5000D442BE219620009402F04DFACDE90094D2
:100C60004F4605234246BE21642002F067FA002366
:100C7000AFF2F442BE21DC20009402F03CFAD946E7
:100C8000B8FBF9F2CDE900740423BE21B92002F0CB
:100C900055FAA968B04606EB411090ED000A20EE27
:100CA0000E0A10EE100A07F009FB41EC180B6868F9
:100CB00007F025F841EC100B51EC180B53EC102BFE
:100CC00006F068FE53EC1B2B07F044F853EC1A2B8C
:100CD00006F0B8FD06F0E6FF86B20023AFF26452DC
:100CE000D2219620009402F006FACDE90074052383
:100CF0003246D221642002F021FA0023AFF2805262
:100D0000D221DC20009402F0F6F9B6FBF9F20423BC
:100D1000D221B92000E0ADE0CDE9007402F00EFA76
:100D2000B0EE498AF0EE698A00244646A86800EBD6
:100D3000C000204406EB800010ED050A20EE0E0AEC
:100D400020EE000A10EE100A07F0B8FA41EC1F0B73
:100D500053EC182B51EC180B06F0FCFF53EC1F2B37
:100D600006F070FD41EC100B06F0E0FC641CA4B230
:100D7000B0EE408AF0EE608A0B2CD7D3686806F09C
:100D8000BEFF41EC100B51EC180B53EC102B06F08E
:100D900001FE53EC1B2B06F0DDFF53EC1A2B06F083
:100DA00051FD06F07FFF1FFA80F854460023AFF292
:100DB0003462E6219620CDF800A002F09CF9CDE93E
:100DC000007405234246E621642002F0B7F90023AF
:100DD000AFF25462E621DC20009402F08CF9B8FBFB
:100DE000F9F2CDE900740423E621B92002F0A6F956
:100DF000CDE9007402230A21FA206A6802F09EF904
:100E00000027A868384406EB800010ED050A20EEA4
:100E10000E0A20EE000A10EE100A07F04FFA41EC1D
:100E2000180B53EC192B51EC190B06F093FF53ECF4
:100E3000182B06F007FD41EC100B06F077FC7F1C29
:100E4000BFB2B0EE409AF0EE609A0B2FD9D328686B
:100E500007F034FA53EC192B06F07CFF06F0F2FE93
:100E600000EB800004EA8000B0F57A7F02D20C200B
:100E7000686003E068680C287FF4CCAA0021481E53
:100E800002F099FA4FF47A7004F021FD0021FE4837
:100E900003F04AFEFD4C94ED000B53EC102BAFF227
:100EA0006471FB4805F0D8FA94ED000B53EC1D2B50
:100EB00051EC100B06F06EFD06F0C4FEA8604FF674
:100EC000FF760023F24A1E217820009602F013F9E3
:100ED0000023AFF290721E21C820009602F00BF999
:100EE0004FF492710D2002F0F7F94FF4FA6004F01C
:100EF000EEFC0021E74803F017FEDFF89C93002486
:100F00009FEDE68AA9F540484FF4805759F8240030
:100F100006F00CFFB0EE4C1AF0EE6C1A53EC112BED
:100F200006F038FD06F05CFC00EE100A08EBC40089
:100F3000641C30EE480AA4B2BC4280ED000AC0ED49
:100F400001EAE3D3C5ED03EA0020DFEDD50A08EBA3
:100F5000C00195ED030A91ED001A401C80B201EE2C
:100F6000200AB84285ED030AF1D30020A94608EB18
:100F7000C001401CD1ED000A80B2B84270EEC00A38
:100F8000C1ED000AF3D3C74902A805F0F3F83D46C6
:100F90003A46C549C34804F043FD9FEDC4ABC24F78
:100FA0000024B0EE4A8AF0EE6A8A9FEDC29A07EBFF
:100FB000840090ED000A20EE090A20EE000A10EEEF
:100FC000100A07F07BF941EC1B0B53EC182B51EC8A
:100FD000180B06F0BFFE53EC1B2B06F033FC41EC64
:100FE000100B06F0A3FB641CA4B2B0EE408AF0EE36
:100FF000608AAC42DBD34D46D9F8000007F05EF9B9
:1010000053EC182B06F0A6FE06F01CFE00EB800049
:1010100006EA80040023AFF69C0232219620009657
:1010200002F069F84FF47849CDE90096C8460523E7
:1010300022463221642002F081F80023AFF6C0027C
:101040003221DC20009602F056F84FF00A0BB4FB78
:10105000FBF2CDE9008604233221B92002F06EF8BC
:10106000B0EE4A8AF0EE6A8A0024A868204407EBB2
:10107000800010ED050A20EE090A20EE000A10EEAD
:10108000100A07F01BF941EC1B0B53EC182B51EC29
:10109000180B06F05FFE53EC1B2B06F0D3FB41EC64
:1010A000100B06F043FB641CA4B2B0EE408AF0EED5
:1010B000608A0B2CD9D3286807F000F953EC182B61
:1010C00006F048FE06F0BEFD00EB800006EA800850
:1010D0000023AFF6581246219620009602F00BF836
:1010E000CDE900964C46052342464621642002F095
:1010F00025F80023AFF678124621DC20009601F097
:10110000FAFF4046D846B0FBF8F2CDE9004604238A
:101110004621B92002F012F8A968BA4607EBC100CF
:1011200090ED000A20EE090A10EE100A07F0C6F84A
:1011300041EC180B286807F0C1F853EC182B06F0A7
:1011400009FE06F07FFD00EB800006EA8007002321
:10115000AFF6D8125A219620009601F0CCFFCDE9C7
:10116000004605233A465A21642001F0E7FF002398
:10117000AFF6F4125A21DC20009601F0BCFFB7FB59
:10118000F8F2CDE9004604235A21B92001F0D6FF38
:10119000B0EE4A8AF0EE6A8A00245746A86800EB4F
:1011A0004000204407EB800010ED050A20EE090AFC
:1011B00020EE000A10EE100A07F080F841EC1B0B3D
:1011C00053EC182B51EC180B06F0C4FD53EC1B2B01
:1011D00006F038FB41EC100B06F0A8FA641CA4B230
:1011E000B0EE408AF0EE608A0B2CD7D3AA462C468C
:1011F000286807F063F853EC182B06F0ABFD06F0F7
:1012000021FD00EB800006EA80080023AFF694225F
:101210006E219620009601F06EFF4FF47845CDE9DF
:101220000056052342466E21642001F087FF00230B
:10123000AFF6B4226E21DC20009601F05CFF404640
:10124000D846B0FBF8F2CDE9005604236E21B92050
:1012500001F074FFA06807EB001090ED000A20EE8B
:10126000090A10EE100A07F029F841EC180B206863
:1012700007F024F853EC182B06F06CFD06F0E2FCA6
:1012800000EB800018E00000000C00404800002047
:101290007C000120000400407CC0002000409C45F0
:1012A000000080397C0000207C80002000000000CD
:1012B000000000000000003A06EA80040023AFF6B8
:1012C000443282219620009601F015FFCDE90056A8
:1012D000052322468221642001F030FF0023AFF66F
:1012E00060328221DC20009601F005FFB4FBF8F2A9
:1012F000CDE9005604238221B92001F01FFFB0EE92
:101300004A8AF0EE6A8A00245546A86800EB8000FD
:10131000204407EB800010ED050A20EE090A20EEBC
:10132000000A10EE100A06F0C9FF41EC1B0B53EC4B
:10133000182B51EC180B06F00DFD53EC1B2B06F08F
:1013400081FA41EC100B06F0F1F9641CA4B2B0EE86
:10135000408AF0EE608A0B2CD7D3A946286806F0A5
:10136000ADFF53EC182B06F0F5FC06F06BFC00EB20
:10137000800006EA80080023AFF600429621084666
:10138000009601F0B8FE4FF47844CDE900460523FD
:1013900042469621642001F0D1FE0023AFF62042A0
:1013A0009621DC20009601F0A6FE40464FF00A0888
:1013B000B0FBF8F2CDE9004604239621B92001F0F4
:1013C000BDFEA86800EB400007EBC00090ED000AEE
:1013D00020EE090A10EE100A06F070FF41EC180B1F
:1013E000286806F06BFF53EC182B06F0B3FC06F0F0
:1013F00029FC00EB800006EA80050023AFF684425A
:10140000AA219620009601F076FECDE9004605233C
:101410002A46AA21642001F091FE0023AFF6A042E3
:10142000AA21DC20009601F066FEB5FBF8F2CDE9BA
:1014300000460423AA21B92001F080FEB0EE4A8ABA
:10144000F0EE6A8A00244D46A868C0EBC000204434
:1014500007EB800010ED050A20EE090A20EE000AD5
:1014600010EE100A06F02AFF41EC1B0B53EC182B70
:1014700051EC180B06F06EFC53EC1B2B06F0E2F956
:1014800041EC100B06F052F9641CA4B2B0EE408A95
:10149000F0EE608A0B2CD7D3AA46286806F00EFF20
:1014A00053EC182B06F056FC06F0CCFB00EB80004A
:1014B000B346344606EA80080023AFF64052BE2108
:1014C0009620009601F017FE4FF47846CDE90064AF
:1014D00005234246BE21642001F030FE0023AFF612
:1014E0006052BE21DC20009401F005FE4FF00A0995
:1014F000B8FBF9F2CDE900640423BE21B92001F064
:101500001DFEA86807EB401090ED000A20EE090AC6
:1015100010EE100A06F0D2FE41EC180B286806F017
:10152000CDFE53EC182B06F015FC06F08BFB00EB00
:10153000800004EA80050023AFF6C052D221962035
:10154000009401F0D8FDCDE9006405232A46D2219C
:10155000642001F0F3FD0023AFF6DC52D221DC2041
:10156000009401F0C8FDB5FBF9F2CDE90064042355
:10157000D221B92001F0E2FDB0EE4A8AF0EE6A8A8B
:1015800000245546A86800EBC000204407EB80000B
:1015900010ED050A20EE090A20EE000A10EE100AEE
:1015A00006F08CFE41EC1B0B53EC182B51EC180B86
:1015B00006F0D0FB53EC1B2B06F044F941EC100B6A
:1015C00006F0B4F8641CA4B2B0EE408AF0EE608A73
:1015D0000B2CD7D3A846286806F070FE53EC182BC6
:1015E00006F0B8FB06F02EFB00EB80005C460BEA31
:1015F00080050023AFF67C62E6219620CDF800B08E
:1016000001F079FDCDE9006405232A46E621642036
:1016100001F094FD0023AFF69862E621DC200094EF
:1016200001F069FDB5FBF9F2CDE900640423E62180
:10163000B92001F083FDCDE9006402230A21FA20DC
:10164000D8F8042001F07AFDB0EE4A8AF0EE6A8AFA
:1016500000254646B068284407EB800010ED050AD7
:1016600020EE090A20EE000A10EE100A06F026FE0F
:1016700041EC1A0B53EC182B51EC180B06F06AFBDB
:1016800053EC1A2B06F0DEF841EC100B06F04EF886
:101690006D1CADB2B0EE408AF0EE608A0B2DD9D34E
:1016A000306806F00BFE53EC182B06F053FB06F0E7
:1016B000C9FA00EB800004EA8000B0F5966F7EF670
:1016C000A9AE01207060FEF7A5BE0000034A02EB40
:1016D00001111022A1F5007104F0C2BF7A84000844
:1016E0001CB50121582002F07BFE0121084602F0C2
:1016F0008BFEFF4C0C220021204602F02DFD0C2217
:101700000121204602F028FD0C220421204602F08F
:1017100023FD0C220521204602F01EFD0C2208218B
:10172000204602F019FD0C220921204602F014FD8A
:101730000C220A21204602F00FFD0C220E21204629
:1017400002F00AFD0C220F21204602F005FD0221C5
:101750008DF804108DF8051000214CF233708DF8CF
:10176000061000908DF807106946204602F080FCB4
:10177000E04C0C220221204602F0EEFC0C22072154
:10178000204602F0E9FC0C220821204602F0E4FC8D
:101790000C220921204602F0DFFC0C220A212046FF
:1017A00002F0DAFC0C220B21204602F0D5FC0C22C0
:1017B0001146204602F0D0FC0C220D21204602F0FA
:1017C000CBFC0C220E21204602F0C6FC0C220F217D
:1017D000204602F0C1FC4FF6847100916946204614
:1017E00002F046FCC44C0C220521204602F0B4FC59
:1017F0000C221146204602F0AFFC0C220D2120469F
:1018000002F0AAFC0C220E21204602F0A5FC47F2B1
:10181000200100916946204602F02AFC1CBD2DE9FA
:10182000F05FB64CFFF75CFF641EFDD201F0EEFCEA
:101830004FF4967001F018FD4FF0DA42B0490020E5
:101840001080B04B18880C46A0F5134C60804FF404
:1018500080754FF4E06B41F2180740F2272840F200
:1018600007744FF4007940F23F16BCF1250C7DD08F
:10187000A0F5104CBCF54A7CF9D0A0F5004CBCF5A5
:10188000995C74D0B0F5134FFBD0A0F5134C4FF416
:101890000177BCF1310C6BD0A0F5194C40F2055921
:1018A000BCF1190C65D0A0F5A85CBCF1050C01D009
:1018B00048457CD1092008700021072005F016FF5B
:1018C000322001F0D1FC4FF48E71122005F00EFF92
:1018D0000121A42005F00AFF0F21082005F006FFD2
:1018E00008210A2005F002FF08210D2005F0FEFE68
:1018F0002146302005F0FAFE0721312005F0F6FEE2
:1019000040F20361322005F0F1FE5F465946332074
:1019100005F0ECFE40F20221342005F0E7FE022142
:10192000352005F0E3FE41F60F71362005F0DEFEAE
:101930002146372005F0DAFE0021382005F0D6FEDA
:101940000021392005F0D2FE21463A2005F0CEFED6
:1019500000213B2005F0CAFE07213C2005F0C6FE11
:1019600000213D2005F0C2FE322003E0B0E07AE223
:1019700094E11CE301F078FC0121072005F0B6FE9C
:101980000121172005F0B2FE322001F06DFC4FF46A
:10199000BD51102005F0AAFE40F21721112005F0DC
:1019A000A5FE4FF48F71122005F0A0FE00E084E345
:1019B0004FF47061132005F099FE00212A2005F0F4
:1019C00095FE0A21292005F091FE4FF49F71122007
:1019D00005F08CFE0021502005F088FEEF215120FB
:1019E00005F084FE0021522005F080FE3146532090
:1019F00005F07CFE4FF41C51602005F077FE0121BC
:101A0000612005F073FE00216A2005F06FFE0021C1
:101A1000802005F06BFE0021812005F067FE00218B
:101A2000822005F063FE0021832005F05FFE002187
:101A3000842005F05BFE0021852005F057FE132170
:101A4000902005F053FE4FF44071922005F04EFEB9
:101A50000521932005F04AFE0021952005F046FE61
:101A60000021972005F042FE0021982005F03EFE5F
:101A70002946012005F03AFE3946022005F036FEDF
:101A800041F23001032005F031FE0021042005F071
:101A90002DFE00210C2005F029FE00210F2005F06D
:101AA00025FE0021202005F021FE0021212005F047
:101AB0001DFE2121072005F019FEC82001F0D4FBEE
:101AC0006121072005F012FEC82001F0CDFBFDE3E7
:101AD0000120087047F6F001E52005F007FE2946D1
:101AE000012005F003FE5946022005F0FFFD0BE042
:101AF000000C02400010024000180240FFFF1F00CF
:101B0000140000200000016D3946032005F0EEFDB1
:101B10000021042005F0EAFD40F20721082005F02D
:101B2000E5FD0021092005F0E1FD00210A2005F076
:101B3000DDFD00210C2005F0D9FD00210D2005F070
:101B4000D5FD00210F2005F0D1FD0021102005F06A
:101B5000CDFD0721112005F0C9FD0021122005F05F
:101B6000C5FD0021132005F0C1FD0121072005F06E
:101B7000BDFDC82001F078FB41F29001102005F076
:101B8000B5FD4146112005F0B1FD322001F06CFB9E
:101B90001F21122005F0AAFD322001F065FB4FF451
:101BA000A851132005F0A2FD2721292005F09EFD54
:101BB0000D212B2005F09AFD322001F055FB00216C
:101BC000202005F093FD0021212005F08FFD00214C
:101BD000302005F08BFD2146312005F087FD40F2D5
:101BE0000731322005F082FD4946352005F07EFDA3
:101BF0000821362005F07AFD0421372005F076FD16
:101C00000021382005F072FD2146392005F06EFDD7
:101C100002213C2005F06AFD41F604513D2005F00B
:101C200065FD0021502005F061FDEF21512005F0F8
:101C30005DFD0021522005F059FD3146532005F08D
:101C400055FD4FF42741602005F050FD0121612032
:101C500005F04CFD00216A2005F048FD00218020A0
:101C600005F044FD0021812005F040FD0021822087
:101C700005F03CFD0021832005F038FD0021842083
:101C800005F034FD0021852005F030FD1021902065
:101C900005F02CFD4FF4C0619220FDE30320087095
:101CA00041F21401E72005F021FD2946012005F04D
:101CB0001DFD4946022005F019FD41F230010320C7
:101CC00005F014FD40F20221082005F00FFD00216F
:101CD000092005F00BFD00210A2005F007FD002179
:101CE0000C2005F003FD00210D2005F0FFFC002174
:101CF0000F2005F0FBFC0021102005F0F7FC072168
:101D0000112005F0F3FC0021122005F0EFFC00216A
:101D1000132005F0EBFCC82001F0A6FA41F2906117
:101D2000102005F0E3FC4146112005F0DFFC3220D5
:101D300001F09AFA0C21122005F0D8FC322001F0B3
:101D400093FA4FF40061132005F0D0FC11212920F3
:101D500005F0CCFC0B212B2005F0C8FC322001F053
:101D600083FA0021202005F0C1FC0021212005F08C
:101D7000BDFC0021302005F0B9FC4FF483752946E5
:101D8000312005F0B3FC0021322005F0AFFC3946CC
:101D9000352005F0ABFC41F20A61362005F0A6FCC7
:101DA0002146372005F0A2FC2946382005F09EFC8C
:101DB0002146392005F09AFC40F202413C2005F012
:101DC00095FC40F60F413D2005F090FC002150208D
:101DD00005F08CFCEF21512005F088FC00215220F9
:101DE00005F084FC3146532005F080FC4FF41C5173
:101DF000602005F07BFC0121612005F077FC0021CB
:101E00006A2005F073FC0021802005F06FFC0021A2
:101E1000812005F06BFC0021822005F067FC002189
:101E2000832005F063FC0021842005F05FFC002185
:101E3000852005F05BFC1021902005F057FC4FF445
:101E4000C061922005F052FC2121072005F04EFCD4
:101E5000322001F009FA6121072005F047FC322009
:101E600001F002FAFDE300200870014605F03EFC97
:101E70002946012005F03AFC5946022005F036FCBF
:101E80003946032005F032FC0021042005F02EFC29
:101E900040F20221082005F029FC0021092005F06C
:101EA00025FC00210A2005F021FC01210C2005F071
:101EB0001DFC00210D2005F019FC00210F2005F06C
:101EC00015FC642001F0D0F940F20111072005F063
:101ED0000DFC642001F0C8F94FF48651102005F084
:101EE00005FC0721112005F001FC4FF48874214600
:101EF000122005F0FBFB4FF43061132005F0F6FBD8
:101F00000021292005F0F2FB44F210012B2005F0FE
:101F1000EDFB0021502005F0E9FBEF21512005F0F9
:101F2000E5FB0021522005F0E1FB3146532005F08E
:101F3000DDFB4FF41C51602005F0D8FB012161202E
:101F400005F0D4FB00216A2005F0D0FB00218020A1
:101F500005F0CCFB0021812005F0C8FB0021822088
:101F600005F0C4FB0021832005F0C0FB0021842084
:101F700005F0BCFB0021852005F0B8FB1021902066
:101F800005F0B4FB0021922005F0B0FB0121932065
:101F900005F0ACFB2146952005F0A8FB0021972019
:101FA00005F0A4FB0021982043E30720EDE30D207A
:101FB00008700621282005F099FB0121002005F07A
:101FC00095FB0021102005F091FB47F2EF21012045
:101FD00005F08CFB4FF4C061022005F087FB46F64C
:101FE0003821032005F082FB46F67401112005F02C
:101FF0007DFB00210F2005F079FB45F208310B2015
:1020000005F074FB03210C2005F070FB0A210D2064
:1020100005F06CFB4FF438510E2005F067FBBE2134
:102020001E2005F063FB4FF40041252005F05EFB08
:102030004FF4F041262005F059FB7821272005F0C8
:1020400055FB00214E2005F051FB00214F2005F0EB
:102050004DFB40F6D901122005F048FB002130204D
:1020600005F044FB4FF48271312005F03FFB294617
:10207000322005F03BFB40F205352946332005F0C0
:1020800035FB4946342005F031FB2946352005F063
:102090002DFB2146362005F029FB691F372005F06E
:1020A00025FB4FF490513A2005F020FB4FF40061DE
:1020B0003B2005F01BFB332177E7A0F5094C40F2EC
:1020C000025A40F20238BCF1890C1DD0A0F5094C2F
:1020D000BCF1990C7ED0A0F5A847083F7BD0A0F5B5
:1020E0008A47313F78D0A0F58A47353F75D04728D9
:1020F00074D0A0F5EE47833F71D067201080188818
:10210000488047286CD0FDE305200870012100209D
:1021100005F0ECFA322001F0A7F84AF6A4010320FA
:1021200005F0E4FA322001F09FF800210C2005F0C0
:10213000DDFA322001F098F840F60C010D2005F090
:10214000D5FA322001F090F84FF42C510E2005F012
:10215000CDFA322001F088F8B0211E2005F0C6FA31
:10216000322001F081F842F63F31012005F0BEFA3D
:10217000322001F079F84FF4C061022005F0B6FA80
:10218000322001F071F80021102005F0AFFA322062
:1021900001F06AF846F27001112005F0A7FA32202A
:1021A00001F062F80021052005F0A0FA322001F0CC
:1021B0005BF80021062005F099FA322001F054F86E
:1021C0004EF61C71162005F091FA322001F04CF801
:1021D000032106E0CEE08EE130E2D7E2FEE37CE3CD
:1021E000FDE3172005F082FA322001F03DF840F2BD
:1021F0003311072005F07AFA322001F035F800217A
:102200000B2005F073FA322001F02EF800210F2088
:1022100005F06CFA322001F027F80021412005F08A
:1022200065FA322001F020F80021422005F05EFA24
:10223000322001F019F80021482005F057FA322029
:1022400001F012F83146492005F050FA322001F031
:102250000BF800214A2005F049FA322001F004F879
:1022600000214B2005F042FA322000F0FDFF4FF430
:102270006F41442005F03AFA322000F0F5FF0021CA
:10228000452005F033FA322000F0EEFF31464620BB
:1022900005F02CFA322000F0E7FF2146302005F04F
:1022A00025FA322000F0E0FF3946312005F01EFA11
:1022B000322000F0D9FF3946322005F017FA3220DB
:1022C00000F0D2FF54465146332000E0B3E105F060
:1022D0000DFA322000F0C8FF40F20751342005F01B
:1022E00005FA322000F0C0FF3946352005F0FEF92E
:1022F000322000F0B9FF3946362005F0F7F93220D8
:1023000000F0B2FF2146372005F0F0F9322000F04E
:10231000ABFF444641463A2005F0E8F9322000F090
:10232000A3FF21463B2005F0E1F9322000F09CFF9D
:102330000021232005F0DAF9322000F095FF00217A
:10234000242005F0D3F9322000F08EFF4FF4004135
:10235000252005F0CBF9322000F086FF00214F2028
:1023600005F0C4F900214E2005F0C0F946F25801ED
:1023700011201BE6042008700621282005F0B6F97C
:102380000121002005F0B2F94AF6A461032005F00E
:10239000ADF904210C2005F0A9F90C210D2005F060
:1023A000A5F94FF420510E2005F0A0F9B5211E200B
:1023B00005F09CF943F63F31012005F097F94FF401
:1023C000C061022005F092F90021102005F08EF97D
:1023D00046F63001112005F089F90021052005F0AD
:1023E00085F90021062005F081F94EF61C711620B2
:1023F00005F07CF93321072005F078F900210B2046
:1024000005F074F900210F2005F070F9002141203A
:1024100005F06CF90021422005F068F90021482000
:1024200005F064F93146492005F060F900214A20A1
:1024300005F05CF900214B2005F058F94FF46F418D
:10244000442005F053F90021452005F04FF93146AD
:10245000462005F04BF900214E2005F047F90021F8
:102460004F2005F043F92146302005F03FF940F2B6
:102470000221312005F03AF93946322005F036F9CB
:1024800054465146332005F031F940F207513420CB
:1024900005F02CF9394600E01EE2352005F026F95A
:1024A0003946362005F022F92146372005F01EF97D
:1024B000444641463A2005F019F921463B2005F0F3
:1024C00015F90021232005F011F90021242005F041
:1024D0000DF94FF40041252005F008F94FF4E041D3
:1024E000262005F003F94BF2EB01202005F0FEF861
:1024F0007C2127205AE5082008702946012005F094
:10250000F5F85946022005F0F1F841F230010320B8
:1025100005F0ECF80021042005F0E8F840F207216E
:10252000082005F0E3F80021092005F0DFF800217C
:102530000A2005F0DBF800210C2005F0D7F8002177
:102540000D2005F0D3F800210F2005F0CFF8322040
:1025500000F08AFE40F20111072005F0C7F8322092
:1025600000F082FE41F2B061102005F0BFF80121B9
:10257000112005F0BBF80121172005F0B7F84FF442
:102580009C71122005F0B2F84FF40061132005F0A1
:10259000ADF80921292005F0A9F809212A2005F024
:1025A000A5F80021A42005F0A1F80021502005F095
:1025B0009DF8EF21512005F099F80021522005F0F7
:1025C00095F83146532005F091F84FF41C516020E6
:1025D00005F08CF80321612005F088F800216A20BD
:1025E00005F084F80021802005F080F8002181208A
:1025F00005F07CF80021822005F078F80021832086
:1026000005F074F80021842005F070F80021852081
:1026100005F06CF81321902005F068F80021922055
:1026200005F064F80321932005F060F84FF48871F9
:10263000952005F05BF840F27311B6E407200870AE
:102640000121002005F052F84FF4C561102005F07B
:102650004DF80621122005F049F840F632211320EA
:1026600000E0EDE105F042F84021112005F03EF8D0
:102670005021152005F03AF81621122005F036F801
:10268000322000F0F1FD45F26061102005F02EF8D7
:10269000322000F0E9FD42F64E21132005F026F825
:1026A0002946012005F022F84FF44071022005F080
:1026B0001DF841F23001032005F018F840F2022124
:1026C000082005F013F800210A2005F00FF800217A
:1026D000302005F00BF840F20241312005F006F8F9
:1026E0004FF48371322005F001F85946332004F08D
:1026F000FDFF4FF48271342004F0F8FF40F2013105
:10270000352004F0F3FF2146362004F0EFFF40F2BD
:102710000531372004F0EAFF4FF40271382004F04D
:10272000E5FF40F60B71392004F0E0FF322000F0A5
:102730009BFD0221412004F0D9FF4FF41C51602081
:1027400004F0D4FF0121612004F0D0FF40F2191100
:10275000902004F0CBFF4FF48571922004F0C6FF67
:102760000421932004F0C2FF2946A02004F0BEFFFC
:10277000322000F079FD40F23311072004F0B6FF5B
:10278000322000F071FD0021A02056E30C200870DB
:102790003021152004F0AAFF10219A2004F0A6FF92
:1027A0002021112004F0A2FF43F22841102004F060
:1027B0009DFF0221122004F099FF41F238011320FD
:1027C00004F094FF282000F04FFD1221084604F089
:1027D0008DFF282000F048FD43F22041102004F036
:1027E00085FF43F24501132004F080FF462000F0EE
:1027F0003BFD0021302004F079FF40F202413120FE
:1028000004F074FF40F20731322004F06FFF4FF400
:102810004171332004F06AFF0421342004F066FF84
:1028200040F20141352004F061FF2146362004F0DA
:102830005DFF40F20531372004F058FF4FF4C264C9
:102840002146382004F052FF2146392004F04EFF83
:102850002946012004F04AFF4FF44071022004F0A1
:1028600045FF41F23001032004F040FF40F608012B
:10287000082004F03BFF08210A2004F037FF4FF442
:102880001C51602004F032FF0121612004F02EFF72
:102890004FF49F71902004F029FF2946922004F004
:1028A00025FF2946932004F021FF4FF44051A0203A
:1028B00004F01CFF1021A32004F018FF01210720C1
:1028C00004F014FF2121072004F010FF232107202A
:1028D00004F00CFF33210720B0E00620087001212E
:1028E000FF2004F003FF0821F32004F0FFFE294637
:1028F000012004F0FBFE5946022004F0F7FE41F2ED
:10290000300100E09BE2032004F0F0FE4146082085
:1029100004F0ECFE40F20721082004F0E7FE00215D
:10292000092004F0E3FE00210A2004F0DFFE00216C
:10293000102004F0DBFE0521112004F0D7FE002159
:10294000122004F0D3FE0021132004F0CFFE322029
:1029500000F08AFC41F2B021102004F0C7FE3220C2
:1029600000F082FC0721112004F0C0FE322000F0AC
:102970007BFC8B21122004F0B9FE322000F074FCA5
:102980004FF4B851132004F0B1FE322000F06CFC7B
:102990002221292004F0AAFE0021302004F0A6FE06
:1029A0002146312004F0A2FE4946322004F09EFE6A
:1029B00040F20711352004F099FE0821362004F07A
:1029C00095FE0021372004F091FE40F202242146BA
:1029D000382004F08BFE4FF4837101E033E012E104
:1029E000392004F083FE21463C2004F07FFE4FF4A2
:1029F00081613D2004F07AFE322000F035FC002198
:102A0000502004F073FEEF21512004F06FFE0021EE
:102A1000522004F06BFE3146532004F067FE4FF461
:102A20002741602004F062FE0121612004F05EFE77
:102A30003321902004F05AFE0B212B2004F056FE87
:102A400040F23311F9E50A2008700021EA2004F071
:102A50004DFE2021EB2004F049FE0C21EC2004F077
:102A600045FEC421ED2004F041FE4021E82004F0A1
:102A70003DFE3821E92004F039FE0121F12004F067
:102A800035FE1021F22004F031FEA321272004F0AE
:102A90002DFE0121402004F029FE0021412004F0F8
:102AA00025FE0021422004F021FE1021432004F0E5
:102AB0001DFE0E21442004F019FE2421452004F0BF
:102AC00015FE0421462004F011FE5021472004F099
:102AD0000DFE0221482004F009FE1321492004F0D4
:102AE00005FE19214A2004F001FE19214B2004F0B3
:102AF000FDFD16214C2004F0F9FD1B21502004F0AF
:102B0000F5FD3121512004F0F1FD2F21522004F078
:102B1000EDFD3F21532004F0E9FD3F21542004F056
:102B2000E5FD3E21552004F0E1FD2F21562004F063
:102B3000DDFD7B21572004F0D9FD0921582004F048
:102B4000D5FD0621592004F0D1FD06215A2004F0BC
:102B5000CDFD0C215B2004F0C9FD1D215C2004F09B
:102B6000C5FDCC215D2004F0C1FD18211B2004F01F
:102B7000BDFD01211A2004F0B9FD1521242004F027
:102B8000B5FD5021252004F0B1FD8B21232004F058
:102B9000ADFD3621182004F0A9FD0121192004F013
:102BA000A5FD0021012004F0A1FD88211F2004F0D3
:102BB0009DFD322000F058FB80211F2004F096FD7F
:102BC000322000F051FB90211F2004F08FFD3220B5
:102BD00000F04AFBD0211F2004F088FD322000F0D5
:102BE00043FB0521172004F081FD0021362004F06D
:102BF0007DFD3821282004F079FD322000F034FBDF
:102C00003C21282019E10B2008700821422004F003
:102C10006DFDB421462004F069FD4321472004F0F6
:102C200065FD1321482004F061FD4721492004F08F
:102C30005DFD14214A2004F059FD36214B2004F09B
:102C400055FD03214C2004F051FD46214D2004F098
:102C50004DFD05214E2004F049FD10214F2004F0C8
:102C600045FD0821502004F041FD0A21512004F0C7
:102C70003DFD0021022004F039FD0021032004F075
:102C800035FD0021042004F031FDEF21052004F082
:102C90002DFD0021062004F029FD0021072004F06D
:102CA00025FD0121082004F021FD3F21092004F029
:102CB0001DFD0A2000F0D8FA0621012004F016FDBF
:102CC000C821162004F012FD9521232004F00EFDEA
:102CD0009521242004F00AFDFF21252004F006FDA3
:102CE0000221272004F002FD0221282004F0FEFC2E
:102CF0000221292004F0FAFC02212A2004F0F6FC2B
:102D000002212C2004F0F2FC02212D2004F0EEFC24
:102D100001213A2004F0EAFC01213B2004F0E6FC0A
:102D2000F0213C2004F0E2FC00213D2004F0DEFC18
:102D3000142000F099FA3821352004F0D7FC7821CE
:102D4000362004F0D3FC38213E2004F0CFFC0F21C4
:102D5000402004F0CBFCF021412004F0C7FC00210E
:102D6000382004F0C3FC4921192004F0BFFC0A21DB
:102D7000932004F0BBFC0A2000F076FA20210846DC
:102D800004F0B4FC03211D2004F0B0FC00211E203F
:102D900004F0ACFC09211F2004F0A8FC53214420BE
:102DA00004F0A4FC1021452004F0A0FC0A2000F04F
:102DB0005BFA04211C2004F099FC142000F054FA62
:102DC0008021432004F092FC052000F04DFA0A21F6
:102DD0001B2004F08BFC282000F046FA12211B2057
:102DE00004F084FC282000F03FFA7F21902004F0BA
:102DF0007DFC0421262004F079FC282000F034FA20
:102E00002421262004F072FC2C21262004F06EFCE4
:102E1000282000F029FA0821702004F067FC3C21EA
:102E2000262004F063FC0221572004F05FFC0021FF
:102E3000552004F05BFC0021572004F057FCBDE84E
:102E4000F05F322000F010BA10B5A0F23F104042FF
:102E500084B2FE48007805280BD0202004F046FC00
:102E60002146212004F042FC4FF0DA412220088064
:102E700010BD4E2004F03AFC2146BDE810404F2022
:102E800004F034BC70B50546F048002400780A28E8
:102E900011D00B280FD000210846FFF7D5FF4FF0C7
:102EA000DA4122200880EA484FF496310580641CFC
:102EB0008C42FBD370BD0021022004F017FC0021DE
:102EC000032004F013FC0021042004F00FFCEF2188
:102ED000052004F00BFC0021062004F007FC002173
:102EE000072004F003FC0121082004F0FFFB3F2130
:102EF000092004F0FBFBD2E710B5FFF7A5FF4FF068
:102F0000DA4122200880D1480178D148091F0929D7
:102F100017D2DFE801F005050505161608080500BB
:102F20000188008810BD0188C1F3C70201880088AC
:102F3000C908C0F38700C90241EA4010104380B2BB
:102F400010BD01880088C0F34511C20AC00200EB21
:102F500041101044F3E710B51446B0F5A07F09D234
:102F6000F02907D2FFF770FF2146BDE8104022206C
:102F700004F0BCBB10BD2DE9F04705469146DDF8D5
:102F800020A098460C4610464D4501D9A94685B269
:102F90001846444501D9884684B2A9EB0500A8EB40
:102FA000040100B20EB250B1A6B1B04230DDC0EBA8
:102FB00046010FB27100404201EB400825E0524645
:102FC00021462846FFF7C7FF641CA4B2A045F6D2ED
:102FD000BDE8F087524621462846FFF7BCFF6D1C2E
:102FE000ADB2A945F6D2F3E7524621462846FFF78F
:102FF000B2FF6D1CADB2002F04DD641CA4B208EB5F
:10300000070001E007EB460007B24D45ECD11AE09E
:10301000C6EB40010FB27100404201EB400910E0E5
:10302000524621462846FFF796FF641CA4B2002FA3
:1030300004DD6D1CADB209EB070001E007EB4600B3
:1030400007B24445ECD1524621462846BDE8F04738
:1030500081E72DE9FF5F894607469B461146684692
:10306000FEF734FB0025EA4600241AF8058009EB38
:103070000506C4F1070128FA01F0C00707EB0400B8
:10308000B1B280B201D05A4600E00E9AFFF763FF5A
:10309000641CA4B2082CECD36D1CADB2102DE3D38C
:1030A000BDE8FF9F2DE9F05F8A4610320746694967
:1030B000D0B29B46002501EB0019002419F80580C9
:1030C0000AEB0506C4F1070128FA01F0C00707EB77
:1030D0000400B1B280B201D05A4600E00A9AFFF76C
:1030E0003AFF641CE4B2082CECD36D1CEDB2102D39
:1030F000E3D3BDE8F09F2DE9F8439946089F1646B3
:103100000D4604464FF49C7816F8012B4B46294691
:1031100020460097FFF79DFF444502D20834A4B231
:1031200007E0E02D4FF0000402D21035ADB200E010
:10313000002530780028E7D1BDE8F8832DE9FF5F4E
:103140000446DDE90EB81F460E46002001AB0A21F9
:103150000CE0B2FBF1F501FB1525B2FBF1F2A7EB98
:10316000000C9C44401C0CF8015CC0B2B842F0D387
:10317000002599464FF49C7A17E0CDF8008019F8A5
:1031800005205B4631462046FFF78CFF544502D2AE
:103190000834A4B207E0E02E4FF0000402D210364B
:1031A000B6B200E000266D1CEDB2BD42E5D377E774
:1031B0002DE9F05F074602FB03F000244FEA400AC6
:1031C000B818DDF828800E464FF6FF7B3D46A0F18B
:1031D000010908EB040018F80420407831460BEA96
:1031E000002002432846FFF7B6FEA41CA94503D1E0
:1031F000761C3D46B6B201E06D1CADB25445E8DB2D
:1032000077E74FF0DA4122200880704700B597B089
:103210000620009000201021CDE90201090204904F
:103220000190CDE90801069007900A900FA905903A
:103230000F220B90CDE90C01CDE90F20CDE9112033
:103240001390149015900E91684605E0140000202C
:103250000000016D6A8A000800F07FFC0121062051
:1032600000F010FD17B000BD002240F2754306E0EB
:103270000021491C89B29942FBD3521C92B282426E
:10328000F6D370477047FEE7FEE7FEE7FEE77047BC
:1032900070477047704700001CB50121202001F0E5
:1032A0009FF8C020009001208DF8040000208DF8C8
:1032B000060003208DF805000220064C8DF807005B
:1032C0006946204600F0D4FEC021204600F035FFBC
:1032D0001CBD0000001402407FB50D4604460121CC
:1032E000022001F09BF801940020ADF80050D84C6A
:1032F000ADF80200ADF808006946204601F09CFBDD
:1033000001221146204601F020FF0121204601F054
:103310000BFC1D208DF80C0001208DF80D00032101
:103320008DF80E108DF80F0003A800F0B0FB7FBDE4
:103330002DE9F041DFF818830121404601F019FF23
:10334000012832D10503C34E2946304600F0F7FE6E
:10335000C14AD2F808020028FBD1C04F386044208F
:1033600000F04DFA00F063FABD4C608000F05FFAA7
:10337000A08000F05CFAE0803978A278B94B114364
:10338000C9B24FF6FF7202EA0121A288114340EA56
:10339000012139602088C0F30B02401C43F8221041
:1033A00020802946304600F0C8FE4046BDE8F04186
:1033B000012101F0EABE2DE9F0438846814687B03D
:1033C0000121082001F02AF80121084601F008F83F
:1033D00002268DF8046003208DF8050001250024E5
:1033E000A14F8DF8064000958DF807506946384684
:1033F00000F03EFE02220021384600F0ADFE9B4F59
:10340000ADF80880ADF80A40CDF80C90ADF810404A
:1034100002A9384601F010FB954801460480468019
:103420008580C4800481384601F0C0FD012203215B
:10343000384601F08AFE0121384601F075FB322042
:103440008DF814008DF815608DF816408DF8175022
:1034500005A800F01CFB07B0BDE8F0832DE9F0479C
:103460007F4C00252DED0C8B2046E66880687F4F51
:10347000002E77DB00284FF004084FF0FF394FF0A3
:10348000010138464BDB01F074FE4FF0804638B145
:10349000A068410004D518EB800119D0401CA06041
:1034A0000221384601F065FE002837D0A0684100AF
:1034B00022D540F00040A060384601F005FEE660ED
:1034C000C4E904050021384601F0F8FA02211EE0A3
:1034D00004F1080240F00040656182E841020021E9
:1034E000384601F0EBFA0221384601F0C8FC012110
:1034F000384601F019FBD3E7A66000213846256164
:1035000001F012FB0021384601F0D8FA00213846BC
:1035100001F0B5FC0121384601F006FB90E001F016
:1035200028FE28B1E16818EB810015D0491CE16044
:103530000221384601F01DFE00280BD0E06840F063
:103540000040E060384601F0BFFD6061022138466E
:1035500001F095FC74E005E041F00040C4F81490DF
:10356000E060E5E79FED439B20F0404004F0DEFB88
:103570009FED42BB53EC1B2B04F0ECFB41EC180B12
:10358000206904F0D3FB53EC182B04F05BF99FED9A
:103590003DCB53EC1C2B04F0FDF941EC180B51EC26
:1035A000190B53EC182B04F04DF941EC1A0B51ECAC
:1035B000180B04F0FFFEC4E90A019FED34DB26F08E
:1035C000404004F0B3FB53EC1B2B04F0C3FB41EC75
:1035D000180B606904F0AAFB53EC182B04F032F9C5
:1035E00053EC1C2B04F0D6F941EC190B51EC1A0BDF
:1035F00053EC192B04F026F941EC180B9FED250B29
:1036000053EC182B51EC100B04F0C4F99FED231B65
:1036100053EC112B04F09EFBC4E90C0153EC1D2B61
:1036200051EC190B04F096FBC4E9060153EC1D2B79
:1036300051EC180B04F08EFBE560A560C4E90801AD
:103640003846BDEC0C8B0321BDE8F04701F09DBD71
:10365000000400400004024000004142100000202D
:10366000180000207CC0002000000240000C004038
:103670009C00012000000000000000000000E0FFAE
:10368000FFFFEF4100000000000055400000000077
:103690000088C340000000000000F03F0000000070
:1036A00080842E417CB500F04DF80121022000F00D
:1036B00097FE01208DF8040000228DF806200221DB
:1036C0008DF805101B4D4FF480548DF807000094C1
:1036D0006946284600F0CCFC2146284600F02DFD26
:1036E0007CBD70B5134D4FF4805486B021462846FA
:1036F00000F025FD472000F082F8322002F0B9F8F2
:1037000000F095F8064600F092F8034632460AA10A
:1037100001A802F0A1FE4FF6FF700090002301AA5D
:103720000A216420FFF7E7FC2146284600F005FD4A
:1037300006B070BD000402402530327820253032BA
:1037400078000000F0B587B00121022000F048FEAB
:1037500001218E03304600F061FE404F05220D210D
:10376000384600F0F9FC05220E21384600F0F4FC42
:1037700005220F21384600F0EFFC7010022505905D
:103780008DF8185003208DF8190000248DF81A4088
:103790008DF81B5005A9384600F06AFC05A938468B
:1037A000059600F065FCA803059005A9384600F0D1
:1037B0005FFC2B4E304601F09FFDADF800404FF40A
:1037C0008270ADF802000120ADF808004002ADF8AB
:1037D0000A001020ADF80C000720ADF80440ADF849
:1037E0001000ADF80650ADF80E406946304601F0C5
:1037F000A7FD0121304601F032FE07B0F0BD70B5E3
:10380000174C05460221204601F0BCFE0028F9D0E5
:103810002946204601F089FE0121204601F0B2FE32
:103820000028F9D02046BDE8704001F07CBE10B5FC
:103830000B4C0221204601F0A5FE0028F9D0002102
:10384000204601F072FE0121204601F09BFE002877
:10385000F9D02046BDE8104001F065BE00040240EA
:10386000003800401CB50121102000F0B9FD5420A3
:10387000009000208DF8040003208DF80500012041
:103880008DF807006946024800F0F2FB1CBD0000FD
:103890000010024010B50A2002F019F86348D0F871
:1038A0001802B0B963496248096800EB810090EDE5
:1038B000000AB5EEC00AF1EE10FA0AD0DFED5E0A9A
:1038C00020EE200ADFED5D0A5D4880EE801A80ED73
:1038D000001A402001F0F4FEBDE81040642001F021
:1038E000F6BF10B50A2001F0F2FF5048D0F81002E0
:1038F000B0B950494E48096800EB810090ED000ACC
:10390000B5EEC00AF1EE10FA0AD0DFED4B0A20EE58
:10391000200ADFED4A0A4A4880EE801A80ED001A3C
:10392000102001F0CDFEBDE81040642001F0CFBFB3
:1039300010B50A2001F0CBFF3C48D0F80802B0B91E
:103940003C493B48096800EB810090ED000AB5EE68
:10395000C00AF1EE10FA0AD03948DFED370A20EE3E
:10396000200ADFED360A80EE801A80ED001A04206E
:1039700001F0A6FEBDE81040642001F0A8BF3EB5EE
:103980000121880300F054FD0221042000F099FF7A
:103990000421084600F095FF0621042000F091FF65
:1039A0000D21022000F08DFF42F25400002501900D
:1039B0008DF808500C208DF8090001248DF80A407C
:1039C00001A801F01FFE28208DF800008DF801509D
:1039D00002258DF802508DF80340684600F057F834
:1039E00017208DF8000003208DF801008DF802509B
:1039F0008DF80340684600F04AF80A208DF8000070
:103A00008DF801508DF802508DF80340684600F0A3
:103A10003EF808208DF800008DF801408DF8025026
:103A20008DF80340684600F032F83EBD0000424287
:103A30007C800020080000200000003A000048427E
:103A4000000000200948804709480047FEE7FEE7DC
:103A5000FEE7FEE7FEE7FEE7FEE7FEE7FEE7FEE73E
:103A600004480549054A064B704700007357000893
:103A700089010008D0010120D0070120D0030120D6
:103A8000D00301202849084328490860704730B511
:103A90000F23C27801780125FAB1244A126801F196
:103AA000E02102F4E062C2F5E062C2F30722C2F153
:103AB0000404D3404278A24084781C40144322017D
:103AC00081F80024007800F01F018D40400980003B
:103AD00000F1E020C0F8005130BD01F01F0085402A
:103AE0004809800000F1E020C0F8805130BD104A44
:103AF000114001430D48001F016070470B4A121D21
:103B00000029116801D0014300E081431160704732
:103B10004FF0E0210428086903D020F00400086178
:103B2000704740F00400FAE70000FA050CED00E0F1
:103B300080FFFF1F8100A1F1C04140B143F2D200DC
:103B400008606FF070404860C1F8040170474FF0A2
:103B5000204243F2DB001060F3E710B5D0E9011218
:103B60001143D0E903231A43114342691143826987
:103B70001143C2691143026A1143426A1143826AC6
:103B80001143C26A1143026B114302689200A2F111
:103B9000C04211608168082907D101688900A1F13C
:103BA000C0410A6842F040020A60416BD1E900233B
:103BB00042EA03128B688C891B0243EA04431A43CE
:103BC0000B8A42EA03520B7D896942EA03620A4387
:103BD00001688900A1F1C0414A60C16AB1F5804F16
:103BE00008D000686FF070418000A0F1C040C0F8BC
:103BF000041110BD816BD1E9002342EA03128B68E6
:103C00000C8A1B0243EA04531A430B7D896942EA7A
:103C1000036200680A438000A0F1C040C0F804219C
:103C200010BD10B500210222C0E900128160C16000
:103C3000016141618161D202C161C0E90812520093
:103C4000C0E90A210163436B0F221A60436B5A607B
:103C5000446BFF23A360446BE260446B2261446BBE
:103C60006261446BA161846B2260846B6260846BCF
:103C7000A360836BDA60836B1A61836B5A61806B1C
:103C8000816110BD8000A0F1C0400029016802D010
:103C900041F0010101E0C54A11400160704710B5D3
:103CA000182340244FF020414FF0FC32102805D05B
:103CB00041F8803F4C608A60CA6010BD0B664C665C
:103CC0008A66CA6610BD30B5D0E901121143D0E949
:103CD00003231A431143426941EA4221826941EABE
:103CE000423141F00804C169D1E9002342EA0322CC
:103CF0000B89097B1B0443EA01610A43016AD1E98C
:103D0000003543EA05230D89097B2D0445EA01614D
:103D10000B4301684FF02040102904D040F8804F39
:103D20008260C36030BD04668266C36630BD102108
:103D30000160002141608160C16001614161816178
:103D4000C269FC211160C2695160C2699160C26997
:103D5000D160026A1160026A5160026A9160006A71
:103D6000C16070474FF0204251B1102804D052F882
:103D7000800F40F004000AE0106E40F004000AE0FA
:103D80008A49C91E102804D052F8800F08401060DC
:103D90007047106E0840106670474FF0204251B1D6
:103DA000102804D052F8800F40F040000AE0106E56
:103DB00040F040000AE07D493F39102804D052F815
:103DC000800F084010607047106E08401066704702
:103DD0004FF02041102802D0D1F894007047486F6E
:103DE00070474FF02040182140F8A01F002141608B
:103DF0004FF0FC318160C1600161704710B5D0E9BE
:103E0000001241EA42218268102343EA4232114300
:103E10004FF0204242F8A01FC168D1E9003443EAC4
:103E200004230C89097B240444EA01610B43936059
:103E30000169D1E9003443EA04230C89097B240495
:103E400044EA01610B43D3604069D0E9001341EAC1
:103E500003210389007B1B0443EA006001431161D5
:103E600010BD0021016041608160C268FC211160C9
:103E7000C2685160C2689160C268D1600269116015
:103E800002695160026991600269D1604269116002
:103E900042695160426991604069C16070474FF06A
:103EA0002041002851F8A00F02D040F0040002E0A9
:103EB0003E4AD21E10400860704710B54FF480741F
:103EC0004FF0204372B1102804D0A04205D153F81E
:103ED000840F04E0586E08430DE053F8A40F084324
:103EE000186010BD102804D0A04206D153F8840FEA
:103EF00005E0586E8843586610BD53F8A40F8843F8
:103F0000EEE7034600204FF02042102B08D0B3F517
:103F1000807F07D0D2F8A4200A4200D00120704749
:103F2000526EF9E7D2F88420F6E74FF020421028CD
:103F300007D0B0F5807F08D052F8A40F88431060F6
:103F40007047506E88435066704752F8840FF5E70B
:103F5000034600204FF02042102B0CD0B3F5807F99
:103F60000BD0D2F8A4200A4202EAD10102D00029E3
:103F700000D001207047526EF5E7D2F88420F2E7B6
:103F80004FF02042102808D0B0F5807F0AD052F8B8
:103F9000A40F20EAD10010607047506E20EAD100D3
:103FA0005066704752F8840FF3E70000FEFF0F00E1
:103FB000714910B5884206D10121084600F042FA45
:103FC000002101204FE06D49884206D101210220E5
:103FD00000F038FA0021022045E06949884206D104
:103FE0000121042000F02EFA002104203BE0654965
:103FF000884206D10121082000F024FA002108207F
:1040000031E06149884206D10121102000F01AFAFE
:104010000021102027E05D49884206D1012120209F
:1040200000F010FA002120201DE05949884206D1F5
:104030000121402000F006FA0021402013E05549FC
:10404000884206D10121802000F0FCF90021802067
:1040500009E0514988420AD184150121204600F027
:10406000F1F900212046BDE8104000F0EBB910BD89
:10407000F0B5002201274FF0030C0B6807FA02F598
:104080002B40AB422CD1066853000CFA03F4A64334
:1040900006600E79D0F800E09E4046EA0E06066003
:1040A0000E79012E01D0022E12D18668A6438660B9
:1040B0004E79D0F808E09E4046EA0E0686604668D3
:1040C000AE43466045688E799640B6B2354345604A
:1040D000C568A543C560CC799C40C3681C43C460D7
:1040E000521C102AC9D3F0BD4FF6FF7101600021A8
:1040F000017141718171C171704708B541F480321D
:104100000092C261C1610099C161C169C06900903A
:1041100008BD0246002012690A4200D00120704703
:10412000006980B270470246002052690A4200D0FE
:1041300001207047406980B2704701837047418316
:1041400070470AB1018370474183704741617047EE
:1041500042694A40426170474B07DB0E9A40C908EA
:1041600010B500EB8100016A0F249C40A14301625D
:10417000016A1143016210BD0000024000040240C8
:1041800000080240000C02400010024000140240EF
:1041900000180240001C024000200240EA4801686A
:1041A00041F001010160E84A002108321160026813
:1041B000E64B1A400260031DE54A1A60026822F4C9
:1041C00080220260E0480C3001607047DE49002226
:1041D000891C0A70087070470246002051090129A5
:1041E0000CD002290CD0D8497431096802F01F02A2
:1041F000012393400B4200D001207047D249F4E7DD
:10420000D1497031F1E718B500204FF4A064009057
:104210003120FFF7E1FF0099491C0091A14201D034
:104220000028F5D03120FFF7D7FF002800D001206B
:1042300018BDC54A116821F0F80141EAC0001060BC
:104240007047C44908607047BF49002270310A7046
:104250000A70012802D0042801D105200870704797
:10426000BD490860704741EA82115A0810B5BB4B3E
:10427000029C03EB02421143014341EA0460B2494C
:10428000091D086010BDB34908667047800140EA07
:104290000170AD49843108607047AE498866704747
:1042A000AC49C8647047A84B08331A68084322F029
:1042B000EC62104318607047A34B08331A68084338
:1042C00022F078421043186070479F4A0832116804
:1042D00021F003010143116070479B4808300068DA
:1042E00000F00C007047984A0832116821F0F00184
:1042F000014311607047944A0832116821F4E0517B
:10430000014311607047904A0832116821F46041FE
:1043100041EAC0001060704770B58B4B08331968D4
:104320008F4C11F00C0104D06610042903D0082929
:1043300003D004601BE0066019E0834A121D116877
:10434000C1F38055116801F03F0115B1B6FBF1F1E1
:1043500001E0B4FBF1F114681268C4F388146143FE
:10436000C2F30142521C5200B1FBF2F10160196824
:104370000F2202EA11117B4A545C0168E14041605E
:104380001C68072505EA9424145D21FA04F484606E
:104390001B6805EA5333D25CD140C16070BDC0F3E5
:1043A0000121032908D1684B083319686E4A21F4AA
:1043B000F81102400A431A60634970310A68C0F379
:1043C0000B0002430A607047634944390860704734
:1043D00061494039086070475E49C1F85C01704727
:1043E000594A30320029116801D0014300E081436D
:1043F00011607047544A34320029116801D00143DA
:1044000000E08143116070474F4A3832002911683B
:1044100001D0014300E08143116070474A4A4032B5
:104420000029116801D0014300E081431160704709
:10443000454A44320029116801D0014300E081431C
:1044400011607047404A10320029116801D00143C1
:1044500000E08143116070473B4A14320029116823
:1044600001D0014300E0814311607047364A1832A1
:104470000029116801D0014300E0814311607047B9
:10448000314A20320029116801D0014300E0814304
:10449000116070472C4A24320029116801D0014371
:1044A00000E0814311607047274A503200291168AB
:1044B00001D0014300E0814311607047224A543229
:1044C0000029116801D0014300E081431160704769
:1044D0001D4A58320029116801D0014300E0814390
:1044E00011607047184A60320029116801D00143F9
:1044F00000E0814311607047134A6432002911685B
:1045000001D0014300E08143116070470E4A0D3233
:104510000029117801D0014300E0814311707047F8
:1045200009487430016841F08071016070470146AC
:10453000054A00200C3212680A4200D00120704760
:1045400001490E310870704700380240FFFFF6FE47
:104550001030002400004742800E47420000FFFF59
:104560000024F40050000020FFFCFF0FC74910B5E5
:10457000884206D101211020FFF78CFF0021102076
:1045800028E0C349884202D101214C0410E0C1490E
:10459000884202D101218C040AE0BF49884202D13D
:1045A0000121CC0404E0BD4988420AD101210C0557
:1045B0002046FFF765FF2046BDE810400021FFF7C9
:1045C0005FBFB749884209D101212020FFF762FF70
:1045D00000212020BDE81040FFF75CBF10BD7FB573
:1045E0000446008A0D46C98820F4405001432182C8
:1045F000A08941F20C618843A9882A8911436A89FC
:1046000002431143A181A08A20F44071A889084384
:10461000A0826846FFF780FE9C48844202D0A048F2
:10462000844201D1039800E00298A189090400EBBB
:10463000C00101EB0010296801D5490000E08900A4
:10464000B0FBF1F06422B0FBF2F109010B096FF04D
:1046500018056B4300EB8300A3891D044FF0320360
:1046600006D503EBC000B0FBF2F000F0070005E058
:1046700003EB0010B0FBF2F000F00F0008432081C4
:104680007FBD4FF41651016000218180C1800181FE
:104690000C2242818181704710B5028A4C8822F435
:1046A00070630A8822438C88C9880C4322431A43CA
:1046B000028210BD0021018041808180C18070474D
:1046C0000029818902D041F4005101E021F4005118
:1046D00081817047028B02F47F420283028B0A437E
:1046E000028370470029818902D041F4004101E032
:1046F000C1F30E01818170470029818A02D041F403
:10470000006101E021F4006181827047C1F308017A
:10471000818070478088C0F308007047028A22F0C9
:104720000F020282028A0A430282704700298189AD
:1047300002D041F0020101E021F0020181817047C5
:10474000828922F40062828182890A4382817047D1
:10475000028A22F020020282028A0A430282704701
:104760000029018A02D041F4804101E021F4804116
:1047700001827047818941F00101818170470029E0
:10478000818A02D041F0080101E021F00801818214
:104790007047028BD2B20283028B42EA012101836D
:1047A00070470029818A02D041F0200101E021F008
:1047B0002001818270470029818A02D041F01001D6
:1047C00001E021F0100181827047828A22F0040208
:1047D0008282828A0A43828270470029818A02D0BB
:1047E00041F0020101E021F0020181827047002ABC
:1047F000828A01D00A4300E08A438282704710B562
:10480000C1F3421301F01F040121A140012B07D085
:10481000022B07D01430002A026805D00A4304E0B6
:104820000C30F8E71030F6E78A43026010BD02460C
:10483000002012880A4200D001207047C94301803D
:10484000704770B501F01F0501260024C1F3421323
:1048500006FA05F2012B0FD0022B0FD0838A4FEA04
:1048600011210088134206FA01F600EA060001D081
:1048700000B10124204670BD8389F0E7038AEEE78A
:104880000A0A01219140C94301807047001001408C
:104890000044004000480040004C004000500040F0
:1048A0000014014010B501218C032046FFF7F2FDF2
:1048B0002046BDE810400021FFF7ECBD1349086019
:1048C000704710B58A0721F003041149120F2144E3
:1048D0000F23D1F8084893409C43C1F80848D1F809
:1048E000083890400343C1F8083810BD0949C1F8A1
:1048F000DC007047084908607047044900202031F7
:104900000968C90500D50120704700000038014042
:10491000003001400000274200042742FE4910B544
:10492000884206D101210846FFF7B4FD002101208D
:104930005BE0B0F1804F09D0F84988420DD10121E8
:104940000220FFF79DFD0021022070E001210846B2
:10495000FFF796FD0021012069E0F149884206D168
:1049600001210420FFF78CFD002104205FE0ED49C8
:10497000884206D101210820FFF782FD002108208E
:1049800055E0E949884206D101211020FFF778FD62
:10499000002110204BE0E549884206D1012120206A
:1049A000FFF76EFD0021202041E0E149884206D159
:1049B00001210220FFF76EFD0021022015E0DD49F4
:1049C000884202D101210C040AE0DB49884202D16D
:1049D00001214C0404E0D94988420AD101218C0408
:1049E0002046FFF757FD00212046BDE81040FFF7A5
:1049F00051BDD349884206D101214020FFF740FD37
:104A00000021402013E0CF49884206D101218020B7
:104A1000FFF736FD0021802009E0CB4988420AD10A
:104A2000841501212046FFF72BFD00212046BDE81B
:104A30001040FFF725BD10BD30B50288B64CBC4D07
:104A4000A0420DD0A8420BD0B0F1804F08D0B34B9C
:104A5000984205D0B24B984202D0B24B984203D153
:104A600022F070034A881A43AF4B984206D0AF4BEE
:104A7000984203D022F440730A891A4302804A689C
:104A8000C2620A880285A04201D0A84201D1897A77
:104A900001860121818230BD4FF0FF31416000214C
:104AA0000180018141808172704701858282704757
:104AB000028822F070020A43028070474162704708
:104AC000C1627047406A7047008D704700290188B5
:104AD00002D041F0020101E021F0020101807047A3
:104AE0000029018802D041F0040101E021F0040115
:104AF000018070470029018802D041F0800101E067
:104B000021F0800101807047028822F008020280B3
:104B100002880A4302807047028822F440720280B1
:104B200002880A43028070470029018802D041F0C0
:104B3000010101E021F001010180704730B5028CD4
:104B400022F001020284028C8388048B22F002028C
:104B500024F073050C882C438D8915434A882A4319
:104B60006D4DA84202D0724DA8420DD122F0080529
:104B7000CA8923F440732A4322F004058A882A4311
:104B80000D8A1D434B8A2B438380048389684163CC
:104B9000028430BD70B5028C22F010020284028CB7
:104BA0008388048B0D8824F4E6464FF6FF7404EAEC
:104BB000052535438E8922F0200204EA06161643A5
:104BC0004A8804EA02123243534EB04202D0584E91
:104BD000B04215D122F08006CA8923F4406304EA6A
:104BE0000212324322F040068A8804EA021232435B
:104BF0000E8A04EA86061E434B8A04EA8303334383
:104C00008380058389688163028470BD70B5028CDE
:104C100022F480720284028C8388848B0D8824F0B5
:104C2000730425438E894FF6FF7422F4007204EA60
:104C3000062616434A8804EA02223243364EB04220
:104C400002D03B4EB04215D122F40066CA8923F44B
:104C5000405304EA0222324322F480668A8804EA3E
:104C6000022232430E8A04EA06161E434B8A04EAE5
:104C700003133343838085838968C163028470BDD5
:104C800070B5028C22F480520284058C8288838B5A
:104C90000C8823F4E6464FF6FF7303EA04243443FA
:104CA00025F400568D8903EA053535434E8803EA1D
:104CB00006362E43184DA84202D01D4DA84205D1FC
:104CC00022F480450A8A03EA82122A43828084837E
:104CD00089680164068470BD002101804180818063
:104CE00081608181C18101824182704730B5012498
:104CF000058C00F118038C40A543058431B30829C5
:104D00002CD0091FC1F34E001844016848F6FF7308
:104D10001940016001681AE00000014000040040F1
:104D200000080040000C004000100040001400404B
:104D3000000401400040014000440140004801409F
:104D400000180040001C00400020004006E04FF624
:104D5000FF7303EA02221143016030BD03EB5100EF
:104D600001684FF68F73194001600168F3E74163F2
:104D7000704781637047C163704701647047028B5D
:104D800022F070020A4302837047028B4FF6FF73D2
:104D900022F4E04203EA0121114301837047828B30
:104DA00022F070020A4382837047828B4FF6FF73B2
:104DB00022F4E04203EA0121114381837047028B10
:104DC00022F008020A4302837047028B4FF6FF73FA
:104DD00022F4006203EA0121114301837047828BB0
:104DE00022F008020A4382837047828B4FF6FF73DA
:104DF00022F4006203EA0121114381837047028B90
:104E000022F004020A4302837047028B4FF6FF73BD
:104E100022F4806203EA0121114301837047828BEF
:104E200022F004020A4382837047828B4FF6FF739D
:104E300022F4806203EA0121114381837047028BCF
:104E400022F080020A4302837047028B4FF6FF7301
:104E5000C2F30E0203EA0121114301837047828BE2
:104E600022F080020A4382837047828B4FF6FF73E1
:104E7000C2F30E0203EA0121114381837047028CC1
:104E800022F002020A4302847047028C22F00802D8
:104E90000A4302847047028C4FF6FF7322F020020F
:104EA00003EA0111114301847047028C4FF6FF732E
:104EB00022F0800203EA0111114301847047028C41
:104EC0004FF6FF7322F4007203EA012111430184BB
:104ED0007047028C4FF6FF7322F4006203EA01214F
:104EE000114301847047028C4FF6FF7322F4005285
:104EF00003EA013111430184704710B50123048C8A
:104F00008B409C430484038C8A401343038410BD6C
:104F100010B50423048C8B409C430484038C8A408A
:104F20001343038410BD828B22F440628283828B00
:104F30004FF6FF7303EA01210A4382837047828B95
:104F400022F00C028283828B0A4382837047028B99
:104F500022F440620283028B4FF6FF7303EA0121C1
:104F60000A4302837047F0B5048C24F010040484D3
:104F7000078B068C4FF6FF7404EA011527F473477C
:104F800004EA0331394304EA02220A4326F0A0016D
:104F9000294341F0100102830184F0BD028B22F00D
:104FA0000C020283028B0A43028370472DE9F04111
:104FB0000C460E884988A288238905460EB3042E24
:104FC00026D0082E2E8C4FF6FF7028D026F480565F
:104FD0002E84AF8B2E8C00EA022200EA013127F4E6
:104FE00073473A4300EA0330104326F420420A4351
:104FF00042F48051A8832984E1882846BDE8F04125
:1050000091E700F062F9E1882846BDE8F041C5E784
:10501000FFF7A9FFE1882846BDE8F04197E726F4AD
:1050200080762E84AF8B2E8C00EA012100EA0310DB
:10503000104327F0F307384326F420620A4342F472
:105040008071A8832984E1882846BDE8F04176E78D
:1050500000210180418001228280C180018170474E
:105060002DE9F0410C46002649880746012501B983
:105070000226A288012A00D102252088238900283F
:10508000384610D0FFF76FFFE1883846FFF75FFF23
:1050900023892A463146384600F017F9E188384618
:1050A000BDE8F0417AE700F010F9E1883846FFF7F3
:1050B00075FF23892A4631463846FFF754FFE188B9
:1050C0003846BDE8F04142E7406B7047806B70475F
:1050D000C06B7047006C704710B50A884B88CC884D
:1050E0001A438B8823431A430B891A434B898989B6
:1050F0001A430A43A0F8442010BD002101804180DA
:105100008180C1800181418181817047002930F80F
:10511000441F02D041F4004101E0C1F30E010180BF
:1051200070470029818802D041F0040101E021F09C
:105130000401818070470029818802D041F001017B
:1051400001E021F0010181807047002A828901D0AD
:105150000A4300E08A438281704781827047024699
:105160000020128A0A4200D001207047C943018200
:10517000704702460020138A92890B4202EA01021C
:1051800002D0002A00D001207047C9430182704735
:105190001143A0F848107047002A828901D00A43C1
:1051A00000E08A43828170470029818802D041F063
:1051B000080101E021F0080181807047018921F098
:1051C000070101817047028922F070020A430281BF
:1051D000704700B50346FFF7F6FF188940F0070057
:1051E000188100BD70B516460D46602904464FF083
:1051F000010231460AD000F068F829462046FFF740
:10520000E2FF208940F00700208170BDFFF7ABFE70
:10521000F3E730B504894FF6FF7505EA032313431E
:10522000E4B20B432343038130BD10B50446FFF7BE
:10523000F0FF208940F07700208110BD10B50446B2
:10524000FFF7E7FF208940F48040208110BD82886D
:1052500022F07002828082880A438280704702892D
:1052600022F00702028102890A4302817047028903
:1052700022F08002028102890A430281704770B5E0
:105280000589048B068C25F007050D434FF6FC417C
:105290000C4040F201110C434FF6FF7101EA03117B
:1052A00026F022061143314305810483018470BD39
:1052B0000029818802D041F0800101E021F08001C5
:1052C00081807047A0F85010704770B5048C24F0AE
:1052D00001040484058B048C4FF6FF7606EA031361
:1052E000134325F0F3052B4324F00A020A4342F04E
:1052F00001010383018470BDB64910B588420AD10B
:10530000841401212046FFF7C5F82046BDE810406F
:105310000021FFF7BFB8B049884202D1012104142F
:1053200004E0AE4988420AD10121C4132046FFF7A8
:10533000A7F82046BDE810400021FFF7A1B810BD36
:1053400030B502884C8802F441530A88CD88224344
:105350008C882C4322430C8922434C8922438C891C
:105360002243CC8922431A430280828B22F40062BA
:105370008283098A018230BDF0B502220023858B29
:1053800001244FF24006354085830284858B8E6868
:10539000022E38D08A8802B10224914A13681B0277
:1053A00003D5136823F4000313608D4A7C3213681D
:1053B0001268C3F388138A4EC2F30272361F36682E
:1053C000884F06F03F06B7FBF6F65E43B6FBF2F2F7
:1053D000CB88B3F5007F2BD06301B2FBF3F202EB75
:1053E00082028B685200B2FBF3F2521D92B20A2382
:1053F000B2FBF3F202F00103D21A4FF6FF74C2F3CC
:105400004F0204EA0323941EFE2C01D30222002340
:10541000CC881A43144304840A884B881A438B8827
:1054200089890B431A432A4342F400618183F0BD0A
:10543000120AD4E70021018041808180C18001816E
:1054400041818181C1810721018270470021018052
:1054500041808180C1800222826081817047002961
:10546000018802D041F0400101E021F040010180BB
:1054700070470029818B02D041F4806101E021F462
:10548000806181837047028822F400620280028872
:105490000A4302807047B1F5804F018803D021F4A0
:1054A00080410180704741F48041FAE7A1F57E42D6
:1054B0000188FF3A02D041F4807101E021F480714B
:1054C000018070470029818802D041F0040101E089
:1054D00021F00401818070470029818802D041F0C9
:1054E000100101E021F010018180704730B5828BFE
:1054F00000234FF240042240828302220284848BE4
:105500000A884FF48075B2F5007F00D002B92B46AF
:105510004A888D8889892A4319430A43224342F4E1
:105520000061818330BD8089704781817047002987
:10553000018802D041F4005101E021F400510180C2
:105540007047018841F4805101807047012901D0E2
:10555000008B7047808A7047008A7047002A8288D3
:1055600001D00A4300E08A43828070470909012381
:105570008B40002A828899B201D00A4300E08A4316
:10558000828070470246002012890A4200D0012022
:105590007047C9430181704730B501F00F03012501
:1055A000024605FA03F40020A3B2090905FA01F442
:1055B0009188A4B2128921401A4202D0002900D059
:1055C000012030BD01F00F0201219140C94301814A
:1055D000704700000030014000380040003C0040AF
:1055E0000838024000127A00374900200860091D7F
:1055F0000860091D0860091D0860334933481431EB
:105600000860704730B5304A8379016853B3136836
:105610008B431360111D0B680468A3430B60017971
:1056200011440B68046823430B60274B0833196847
:105630000468A14319601C1D21680568A943216005
:105640004179102905D011440A68006802430A60B4
:1056500030BD196802681143196021680068014370
:10566000216030BD0079104402688A43026030BD79
:105670000021016001710C22427181717047124951
:1056800010310A6802430A60704701460E4A002042
:10569000143212680A4200D0012070470A491431BE
:1056A00008607047084A014600201268064B0A400D
:1056B00014331B680B4202D0002A00D0012070472F
:1056C0000149143108607047003C0140FFFF7F0032
:1056D0000CB50022544900920192086840F48030D1
:1056E00008604FF4A063086800F40030019000984F
:1056F000401C0090019810B900989842F3D10868B6
:10570000800334D50120019047484030026842F0C0
:10571000805202604548026842F48042026042487A
:10572000083002680260026842F4004202600268C7
:1057300042F4A0520260031F3D4A1A600A6842F018
:1057400080720A600A689201FCD53A4940F205620B
:105750000A60016821F003010160016841F0020163
:1057600001600168C1F381010229FAD10CBD0192E7
:105770000CBD314810B5016841F4700101602A4840
:10578000016841F001010160274A002108321160DF
:1057900002682A4B1A400260031D294A1A600268F7
:1057A00022F48022026020480C300160FFF790FF55
:1057B00021494FF000608039086010BD70B51A4D66
:1057C000083528681F4B204910F00C0004D05E10EB
:1057D000042803D0082803D00B601BE00E6019E0FA
:1057E000114A121D1068C0F38054106800F03F0089
:1057F00014B1B6FBF0F001E0B3FBF0F013681268EF
:10580000C3F388135843C2F30142521C5200B0FB49
:10581000F2F0086028680C4AC0F30310121D105CF7
:105820000A68C2400A6070BD003802400070004043
:1058300008544007003C024088ED00E0FFFFF6FE00
:10584000103000240024F4006000002010B504464D
:105850006FF00400FEF75CF92949E00800EB400214
:105860000870C2EBC0104FF6FF7202EAC000488019
:1058700010BD2349097848434FF0E02148610023D7
:105880008B61086940F0010008610869C20701D016
:10589000C003FAD5086920F0010008618B617047E8
:1058A0001749498848434FF0E021486100238B6144
:1058B000086940F0010008610869C20701D0C0030F
:1058C000FAD5086920F0010008618B61704770B556
:1058D0004FF40776B0FBF6F1CCB2B0FBF6F106FB65
:1058E000110504E03046FFF7DBFF641EE4B2002C34
:1058F000F8D1002D03D02846BDE87040D0E770BD38
:1059000074000020704742490A885206FCD5C2B292
:105910008A807047F0B50646012187B00846FEF739
:105920005FFD01211020FEF783FD3A4D072209217A
:105930002846FEF711FC07220A212846FEF70CFC38
:1059400002218DF814108DF815104FF4C06000245A
:1059500004908DF8164001278DF8177004A9284689
:10596000FEF786FBADF80440ADF80640ADF8084000
:10597000ADF80C400C20264CADF80A0000966946A4
:105980002046FEF72CFE01212046FEF799FE01225B
:1059900040F225512046FEF732FF25208DF81800F1
:1059A00003208DF819008DF81A008DF81B7006A8D9
:1059B000FEF76DF807B0F0BD70B5154C40F22551FB
:1059C0002046FEF73EFF00280ED02046FEF7A2FE3E
:1059D000114AC1B21088030406D444044FF00003F6
:1059E00006D50A2901D0138070BD40F400400DE0B7
:1059F0000D2909D0C0F30D04084D401C80B2295573
:105A00001080C728EFD870BD40F48040108070BD72
:105A1000001001400000024078000020A600012094
:105A20009FED3A0A5FEA920C53D000BFF0EC010AF6
:105A30000B1DB0EC011A60EEA00A41EE010AF5EE72
:105A4000C00AF1EE10FAC6BFB1EEE01A81ED001AFD
:105A500081ED000AF0EC010A191DB0EC011A60EEAC
:105A6000A00A41EE010AF5EEC00AF1EE10FAC6BF37
:105A7000B1EEE01A83ED001A83ED000AF0EC010AA2
:105A80000B1DB0EC011A60EEA00A41EE010AF5EE22
:105A9000C00AF1EE10FAC6BFB1EEE01A81ED001AAD
:105AA00081ED000AF0EC010A191DB0EC011A60EE5C
:105AB000A00A41EE010AF5EEC00AF1EE10FAC6BFE7
:105AC000B1EEE01A83ED001A83ED000ABCF1010C7F
:105AD000ACD112F0030208BF704700BFF0EC010A1E
